{"abi":[{"type":"function","name":"documentHashes","inputs":[{"name":"","type":"uint256","internalType":"uint256"}],"outputs":[{"name":"","type":"bytes32","internalType":"bytes32"}],"stateMutability":"view"},{"type":"function","name":"documents","inputs":[{"name":"","type":"bytes32","internalType":"bytes32"}],"outputs":[{"name":"hash","type":"bytes32","internalType":"bytes32"},{"name":"timestamp","type":"uint256","internalType":"uint256"},{"name":"signer","type":"address","internalType":"address"},{"name":"signature","type":"bytes","internalType":"bytes"}],"stateMutability":"view"},{"type":"function","name":"getDocumentCount","inputs":[],"outputs":[{"name":"","type":"uint256","internalType":"uint256"}],"stateMutability":"view"},{"type":"function","name":"getDocumentHashByIndex","inputs":[{"name":"_index","type":"uint256","internalType":"uint256"}],"outputs":[{"name":"","type":"bytes32","internalType":"bytes32"}],"stateMutability":"view"},{"type":"function","name":"getDocumentInfo","inputs":[{"name":"_hash","type":"bytes32","internalType":"bytes32"}],"outputs":[{"name":"","type":"tuple","internalType":"struct DocumentRegistry.Document","components":[{"name":"hash","type":"bytes32","internalType":"bytes32"},{"name":"timestamp","type":"uint256","internalType":"uint256"},{"name":"signer","type":"address","internalType":"address"},{"name":"signature","type":"bytes","internalType":"bytes"}]}],"stateMutability":"view"},{"type":"function","name":"isDocumentStored","inputs":[{"name":"_hash","type":"bytes32","internalType":"bytes32"}],"outputs":[{"name":"","type":"bool","internalType":"bool"}],"stateMutability":"view"},{"type":"function","name":"storeDocumentHash","inputs":[{"name":"_hash","type":"bytes32","internalType":"bytes32"},{"name":"_timestamp","type":"uint256","internalType":"uint256"},{"name":"_signature","type":"bytes","internalType":"bytes"},{"name":"_signer","type":"address","internalType":"address"}],"outputs":[],"stateMutability":"nonpayable"},{"type":"function","name":"verifyDocument","inputs":[{"name":"_hash","type":"bytes32","internalType":"bytes32"},{"name":"_signer","type":"address","internalType":"address"},{"name":"_signature","type":"bytes","internalType":"bytes"}],"outputs":[{"name":"","type":"bool","internalType":"bool"}],"stateMutability":"view"}],"bytecode":{"object":"0x6080604052348015600e575f5ffd5b5061141e8061001c5f395ff3fe608060405234801561000f575f5ffd5b5060043610610086575f3560e01c8063757d2c6b11610059578063757d2c6b1461013b5780638e383c6b146101575780639f788d1014610187578063dd4ad4b6146101b757610086565b8063090b0a301461008a5780632b2805db146100ba5780633d1c2273146100ed57806346fad8991461010b575b5f5ffd5b6100a4600480360381019061009f9190610a03565b6101e7565b6040516100b19190610b64565b60405180910390f35b6100d460048036038101906100cf9190610a03565b6103ab565b6040516100e49493929190610bf9565b60405180910390f35b6100f561047b565b6040516101029190610c43565b60405180910390f35b61012560048036038101906101209190610a03565b610487565b6040516101329190610c76565b60405180910390f35b61015560048036038101906101509190610e0f565b6104f1565b005b610171600480360381019061016c9190610e8f565b6106e5565b60405161017e9190610eba565b60405180910390f35b6101a1600480360381019061019c9190610e8f565b610705565b6040516101ae9190610eba565b60405180910390f35b6101d160048036038101906101cc9190610ed3565b610771565b6040516101de9190610c76565b60405180910390f35b6101ef610984565b815f73ffffffffffffffffffffffffffffffffffffffff165f5f8381526020019081526020015f206002015f9054906101000a900473ffffffffffffffffffffffffffffffffffffffff1673ffffffffffffffffffffffffffffffffffffffff1603610290576040517f08c379a000000000000000000000000000000000000000000000000000000000815260040161028790610f99565b60405180910390fd5b5f5f8481526020019081526020015f206040518060800160405290815f820154815260200160018201548152602001600282015f9054906101000a900473ffffffffffffffffffffffffffffffffffffffff1673ffffffffffffffffffffffffffffffffffffffff1673ffffffffffffffffffffffffffffffffffffffff16815260200160038201805461032390610fe4565b80601f016020809104026020016040519081016040528092919081815260200182805461034f90610fe4565b801561039a5780601f106103715761010080835404028352916020019161039a565b820191905f5260205f20905b81548152906001019060200180831161037d57829003601f168201915b505050505081525050915050919050565b5f602052805f5260405f205f91509050805f015490806001015490806002015f9054906101000a900473ffffffffffffffffffffffffffffffffffffffff16908060030180546103fa90610fe4565b80601f016020809104026020016040519081016040528092919081815260200182805461042690610fe4565b80156104715780601f1061044857610100808354040283529160200191610471565b820191905f5260205f20905b81548152906001019060200180831161045457829003601f168201915b5050505050905084565b5f600180549050905090565b5f5f73ffffffffffffffffffffffffffffffffffffffff165f5f8481526020019081526020015f206002015f9054906101000a900473ffffffffffffffffffffffffffffffffffffffff1673ffffffffffffffffffffffffffffffffffffffff1614159050919050565b835f73ffffffffffffffffffffffffffffffffffffffff165f5f8381526020019081526020015f206002015f9054906101000a900473ffffffffffffffffffffffffffffffffffffffff1673ffffffffffffffffffffffffffffffffffffffff1614610592576040517f08c379a00000000000000000000000000000000000000000000000000000000081526004016105899061105e565b60405180910390fd5b5f73ffffffffffffffffffffffffffffffffffffffff168273ffffffffffffffffffffffffffffffffffffffff1603610600576040517f08c379a00000000000000000000000000000000000000000000000000000000081526004016105f7906110c6565b60405180910390fd5b60405180608001604052808681526020018581526020018373ffffffffffffffffffffffffffffffffffffffff168152602001848152505f5f8781526020019081526020015f205f820151815f0155602082015181600101556040820151816002015f6101000a81548173ffffffffffffffffffffffffffffffffffffffff021916908373ffffffffffffffffffffffffffffffffffffffff16021790555060608201518160030190816106b49190611284565b50905050600185908060018154018082558091505060019003905f5260205f20015f90919091909150555050505050565b600181815481106106f4575f80fd5b905f5260205f20015f915090505481565b5f600180549050821061074d576040517f08c379a00000000000000000000000000000000000000000000000000000000081526004016107449061139d565b60405180910390fd5b60018281548110610761576107606113bb565b5b905f5260205f2001549050919050565b5f835f73ffffffffffffffffffffffffffffffffffffffff165f5f8381526020019081526020015f206002015f9054906101000a900473ffffffffffffffffffffffffffffffffffffffff1673ffffffffffffffffffffffffffffffffffffffff1603610813576040517f08c379a000000000000000000000000000000000000000000000000000000000815260040161080a90610f99565b60405180910390fd5b5f5f5f8781526020019081526020015f206040518060800160405290815f820154815260200160018201548152602001600282015f9054906101000a900473ffffffffffffffffffffffffffffffffffffffff1673ffffffffffffffffffffffffffffffffffffffff1673ffffffffffffffffffffffffffffffffffffffff1681526020016003820180546108a790610fe4565b80601f01602080910402602001604051908101604052809291908181526020018280546108d390610fe4565b801561091e5780601f106108f55761010080835404028352916020019161091e565b820191905f5260205f20905b81548152906001019060200180831161090157829003601f168201915b50505050508152505090508473ffffffffffffffffffffffffffffffffffffffff16816040015173ffffffffffffffffffffffffffffffffffffffff1614801561097957508380519060200120816060015180519060200120145b925050509392505050565b60405180608001604052805f81526020015f81526020015f73ffffffffffffffffffffffffffffffffffffffff168152602001606081525090565b5f604051905090565b5f5ffd5b5f5ffd5b5f819050919050565b6109e2816109d0565b81146109ec575f5ffd5b50565b5f813590506109fd816109d9565b92915050565b5f60208284031215610a1857610a176109c8565b5b5f610a25848285016109ef565b91505092915050565b610a37816109d0565b82525050565b5f819050919050565b610a4f81610a3d565b82525050565b5f73ffffffffffffffffffffffffffffffffffffffff82169050919050565b5f610a7e82610a55565b9050919050565b610a8e81610a74565b82525050565b5f81519050919050565b5f82825260208201905092915050565b8281835e5f83830152505050565b5f601f19601f8301169050919050565b5f610ad682610a94565b610ae08185610a9e565b9350610af0818560208601610aae565b610af981610abc565b840191505092915050565b5f608083015f830151610b195f860182610a2e565b506020830151610b2c6020860182610a46565b506040830151610b3f6040860182610a85565b5060608301518482036060860152610b578282610acc565b9150508091505092915050565b5f6020820190508181035f830152610b7c8184610b04565b905092915050565b610b8d816109d0565b82525050565b610b9c81610a3d565b82525050565b610bab81610a74565b82525050565b5f82825260208201905092915050565b5f610bcb82610a94565b610bd58185610bb1565b9350610be5818560208601610aae565b610bee81610abc565b840191505092915050565b5f608082019050610c0c5f830187610b84565b610c196020830186610b93565b610c266040830185610ba2565b8181036060830152610c388184610bc1565b905095945050505050565b5f602082019050610c565f830184610b93565b92915050565b5f8115159050919050565b610c7081610c5c565b82525050565b5f602082019050610c895f830184610c67565b92915050565b610c9881610a3d565b8114610ca2575f5ffd5b50565b5f81359050610cb381610c8f565b92915050565b5f5ffd5b5f5ffd5b7f4e487b71000000000000000000000000000000000000000000000000000000005f52604160045260245ffd5b610cf782610abc565b810181811067ffffffffffffffff82111715610d1657610d15610cc1565b5b80604052505050565b5f610d286109bf565b9050610d348282610cee565b919050565b5f67ffffffffffffffff821115610d5357610d52610cc1565b5b610d5c82610abc565b9050602081019050919050565b828183375f83830152505050565b5f610d89610d8484610d39565b610d1f565b905082815260208101848484011115610da557610da4610cbd565b5b610db0848285610d69565b509392505050565b5f82601f830112610dcc57610dcb610cb9565b5b8135610ddc848260208601610d77565b91505092915050565b610dee81610a74565b8114610df8575f5ffd5b50565b5f81359050610e0981610de5565b92915050565b5f5f5f5f60808587031215610e2757610e266109c8565b5b5f610e34878288016109ef565b9450506020610e4587828801610ca5565b935050604085013567ffffffffffffffff811115610e6657610e656109cc565b5b610e7287828801610db8565b9250506060610e8387828801610dfb565b91505092959194509250565b5f60208284031215610ea457610ea36109c8565b5b5f610eb184828501610ca5565b91505092915050565b5f602082019050610ecd5f830184610b84565b92915050565b5f5f5f60608486031215610eea57610ee96109c8565b5b5f610ef7868287016109ef565b9350506020610f0886828701610dfb565b925050604084013567ffffffffffffffff811115610f2957610f286109cc565b5b610f3586828701610db8565b9150509250925092565b5f82825260208201905092915050565b7f446f63756d656e7420646f6573206e6f742065786973740000000000000000005f82015250565b5f610f83601783610f3f565b9150610f8e82610f4f565b602082019050919050565b5f6020820190508181035f830152610fb081610f77565b9050919050565b7f4e487b71000000000000000000000000000000000000000000000000000000005f52602260045260245ffd5b5f6002820490506001821680610ffb57607f821691505b60208210810361100e5761100d610fb7565b5b50919050565b7f446f63756d656e7420616c7265616479206578697374730000000000000000005f82015250565b5f611048601783610f3f565b915061105382611014565b602082019050919050565b5f6020820190508181035f8301526110758161103c565b9050919050565b7f5369676e65722063616e6e6f74206265207a65726f20616464726573730000005f82015250565b5f6110b0601d83610f3f565b91506110bb8261107c565b602082019050919050565b5f6020820190508181035f8301526110dd816110a4565b9050919050565b5f819050815f5260205f209050919050565b5f6020601f8301049050919050565b5f82821b905092915050565b5f600883026111407fffffffffffffffffffffffffffffffffffffffffffffffffffffffffffffffff82611105565b61114a8683611105565b95508019841693508086168417925050509392505050565b5f819050919050565b5f61118561118061117b84610a3d565b611162565b610a3d565b9050919050565b5f819050919050565b61119e8361116b565b6111b26111aa8261118c565b848454611111565b825550505050565b5f5f905090565b6111c96111ba565b6111d4818484611195565b505050565b5b818110156111f7576111ec5f826111c1565b6001810190506111da565b5050565b601f82111561123c5761120d816110e4565b611216846110f6565b81016020851015611225578190505b611239611231856110f6565b8301826111d9565b50505b505050565b5f82821c905092915050565b5f61125c5f1984600802611241565b1980831691505092915050565b5f611274838361124d565b9150826002028217905092915050565b61128d82610a94565b67ffffffffffffffff8111156112a6576112a5610cc1565b5b6112b08254610fe4565b6112bb8282856111fb565b5f60209050601f8311600181146112ec575f84156112da578287015190505b6112e48582611269565b86555061134b565b601f1984166112fa866110e4565b5f5b82811015611321578489015182556001820191506020850194506020810190506112fc565b8683101561133e578489015161133a601f89168261124d565b8355505b6001600288020188555050505b505050505050565b7f496e646578206f7574206f6620626f756e6473000000000000000000000000005f82015250565b5f611387601383610f3f565b915061139282611353565b602082019050919050565b5f6020820190508181035f8301526113b48161137b565b9050919050565b7f4e487b71000000000000000000000000000000000000000000000000000000005f52603260045260245ffdfea26469706673582212206d1a83a3dbd408e31a8efa74976a7f1393c254893b21545f414bc5ad9cc9585964736f6c634300081e0033","linkReferences":{}},"methodIdentifiers":{"documentHashes(uint256)":"8e383c6b","documents(bytes32)":"2b2805db","getDocumentCount()":"3d1c2273","getDocumentHashByIndex(uint256)":"9f788d10","getDocumentInfo(bytes32)":"090b0a30","isDocumentStored(bytes32)":"46fad899","storeDocumentHash(bytes32,uint256,bytes,address)":"757d2c6b","verifyDocument(bytes32,address,bytes)":"dd4ad4b6"},"id":16}